:020000040000FA
:040000008A110D282C
:10000800FE00030E83120313A0000A08A1008A1140
:100018003D298A110F2883120313B401B501830106
:100028008A11162801308316031386008801870178
:100038000130831203139200F930831603139200E0
:10004800831203138C10831603138C140B178B174E
:10005800831212159101B401B50106183428352808
:100068003128333083120313AF00BB30AE00DF30CA
:10007800AD00AD0B3D28AE0B3D28AF0B3D28000071
:100088008312031312118A11EA208A1183120313AF
:100098002A08B3002908B200320833040319552886
:1000A80056285928320888005A2888018A111421AC
:1000B8008A11831203132A08B1002908B0003008F6
:1000C80087002C288A110D2883120313A601A70183
:1000D80022082304031971287228A928A801A80A4C
:1000E800802801300310A20DA30DFF3E031D7628C2
:1000F8000130FF007F08A807A31F832884287528DC
:1001080001300310A60DA70DFF3E031D8528230807
:100118002502031D912822082402031C94289528EF
:100128009C282208A4022308031CA503A502261460
:1001380001300310A30CA20CFF3E031D9D280130C3
:10014800A802031DA828A92884282708A300260890
:10015800A200080083120313220823040319B528F8
:10016800B628E528A601A60AC42801300310A20D66
:10017800A30DFF3E031DBA280130FF007F08A60724
:10018800A31FC728C828B92823082502031DCE287D
:1001980022082402031CD128D228D8282208A40225
:1001A8002308031CA503A50201300310A30CA20C0D
:1001B800FF3E031DD9280130A602031DE428E528C7
:1001C800C8282508A3002408A2000800E8308312E4
:1001D8000313A2000330A3003508A5003408A400C7
:1001E8008A1168208A11831203132308AC0022089D
:1001F800AB002B082C04031902290329112900300C
:100208002C02FF3003192B0203180B290C29112982
:100218002C08AA002B08A9001329A901AA01080083
:10022800E83083120313A2000330A3003508A500A9
:100238003408A4008A11AE208A11831203132308FC
:10024800AC002208AB000A30A2000030A3002C0842
:10025800A5002B08A4008A1168208A1183120313B1
:100268002308AC002208AB002C08AA002B08A90020
:1002780008008C1C4029412948298C100130B407FA
:100288000318B50A0030B50721088A00200E83003C
:06029800FE0E7E0E0900BF
:02400E00BA3FB7
:00000001FF
